{
  "contractName": "RegistroArchivos",
  "abi": [
    {
      "inputs": [
        {
          "internalType": "uint256",
          "name": "",
          "type": "uint256"
        }
      ],
      "name": "archivos",
      "outputs": [
        {
          "internalType": "uint256",
          "name": "id",
          "type": "uint256"
        },
        {
          "internalType": "string",
          "name": "hashIPFS",
          "type": "string"
        },
        {
          "internalType": "uint256",
          "name": "contador",
          "type": "uint256"
        }
      ],
      "stateMutability": "view",
      "type": "function"
    },
    {
      "inputs": [
        {
          "internalType": "string",
          "name": "_hashIPFS",
          "type": "string"
        }
      ],
      "name": "agregarArchivo",
      "outputs": [],
      "stateMutability": "nonpayable",
      "type": "function"
    },
    {
      "inputs": [
        {
          "internalType": "string",
          "name": "_hashIPFS",
          "type": "string"
        }
      ],
      "name": "registrarAcceso",
      "outputs": [],
      "stateMutability": "nonpayable",
      "type": "function"
    },
    {
      "inputs": [
        {
          "internalType": "string",
          "name": "_hashIPFS",
          "type": "string"
        }
      ],
      "name": "obtenerContador",
      "outputs": [
        {
          "internalType": "uint256",
          "name": "",
          "type": "uint256"
        }
      ],
      "stateMutability": "view",
      "type": "function"
    }
  ],
  "bytecode": "0x6080604052348015600e575f80fd5b506109c78061001c5f395ff3fe608060405234801561000f575f80fd5b506004361061004a575f3560e01c80630afc89481461004e57806321bfe7aa14610080578063223c4cca1461009c578063d7253fbc146100cc575b5f80fd5b61006860048036038101906100639190610332565b6100e8565b604051610077939291906103dc565b60405180910390f35b61009a60048036038101906100959190610544565b6101a2565b005b6100b660048036038101906100b19190610544565b610248565b6040516100c3919061058b565b60405180910390f35b6100e660048036038101906100e19190610544565b610291565b005b5f81815481106100f6575f80fd5b905f5260205f2090600302015f91509050805f01549080600101805461011b906105d1565b80601f0160208091040260200160405190810160405280929190818152602001828054610147906105d1565b80156101925780601f1061016957610100808354040283529160200191610192565b820191905f5260205f20905b81548152906001019060200180831161017557829003601f168201915b5050505050908060020154905083565b5f60405180606001604052805f8054905081526020018381526020015f815250908060018154018082558091505060019003905f5260205f2090600302015f909190919091505f820151815f01556020820151816001019081610205919061079e565b5060408201518160020155505060015f80549050610223919061089a565b6001826040516102339190610907565b90815260200160405180910390208190555050565b5f8060018360405161025a9190610907565b9081526020016040518091039020548154811061027a5761027961091d565b5b905f5260205f209060030201600201549050919050565b5f6001826040516102a29190610907565b90815260200160405180910390205490505f81815481106102c6576102c561091d565b5b905f5260205f2090600302016002015f8154809291906102e59061094a565b91905055505050565b5f604051905090565b5f80fd5b5f80fd5b5f819050919050565b610311816102ff565b811461031b575f80fd5b50565b5f8135905061032c81610308565b92915050565b5f60208284031215610347576103466102f7565b5b5f6103548482850161031e565b91505092915050565b610366816102ff565b82525050565b5f81519050919050565b5f82825260208201905092915050565b8281835e5f83830152505050565b5f601f19601f8301169050919050565b5f6103ae8261036c565b6103b88185610376565b93506103c8818560208601610386565b6103d181610394565b840191505092915050565b5f6060820190506103ef5f83018661035d565b818103602083015261040181856103a4565b9050610410604083018461035d565b949350505050565b5f80fd5b5f80fd5b7f4e487b71000000000000000000000000000000000000000000000000000000005f52604160045260245ffd5b61045682610394565b810181811067ffffffffffffffff8211171561047557610474610420565b5b80604052505050565b5f6104876102ee565b9050610493828261044d565b919050565b5f67ffffffffffffffff8211156104b2576104b1610420565b5b6104bb82610394565b9050602081019050919050565b828183375f83830152505050565b5f6104e86104e384610498565b61047e565b9050828152602081018484840111156105045761050361041c565b5b61050f8482856104c8565b509392505050565b5f82601f83011261052b5761052a610418565b5b813561053b8482602086016104d6565b91505092915050565b5f60208284031215610559576105586102f7565b5b5f82013567ffffffffffffffff811115610576576105756102fb565b5b61058284828501610517565b91505092915050565b5f60208201905061059e5f83018461035d565b92915050565b7f4e487b71000000000000000000000000000000000000000000000000000000005f52602260045260245ffd5b5f60028204905060018216806105e857607f821691505b6020821081036105fb576105fa6105a4565b5b50919050565b5f819050815f5260205f209050919050565b5f6020601f8301049050919050565b5f82821b905092915050565b5f6008830261065d7fffffffffffffffffffffffffffffffffffffffffffffffffffffffffffffffff82610622565b6106678683610622565b95508019841693508086168417925050509392505050565b5f819050919050565b5f6106a261069d610698846102ff565b61067f565b6102ff565b9050919050565b5f819050919050565b6106bb83610688565b6106cf6106c7826106a9565b84845461062e565b825550505050565b5f90565b6106e36106d7565b6106ee8184846106b2565b505050565b5b81811015610711576107065f826106db565b6001810190506106f4565b5050565b601f8211156107565761072781610601565b61073084610613565b8101602085101561073f578190505b61075361074b85610613565b8301826106f3565b50505b505050565b5f82821c905092915050565b5f6107765f198460080261075b565b1980831691505092915050565b5f61078e8383610767565b9150826002028217905092915050565b6107a78261036c565b67ffffffffffffffff8111156107c0576107bf610420565b5b6107ca82546105d1565b6107d5828285610715565b5f60209050601f831160018114610806575f84156107f4578287015190505b6107fe8582610783565b865550610865565b601f19841661081486610601565b5f5b8281101561083b57848901518255600182019150602085019450602081019050610816565b868310156108585784890151610854601f891682610767565b8355505b6001600288020188555050505b505050505050565b7f4e487b71000000000000000000000000000000000000000000000000000000005f52601160045260245ffd5b5f6108a4826102ff565b91506108af836102ff565b92508282039050818111156108c7576108c661086d565b5b92915050565b5f81905092915050565b5f6108e18261036c565b6108eb81856108cd565b93506108fb818560208601610386565b80840191505092915050565b5f61091282846108d7565b915081905092915050565b7f4e487b71000000000000000000000000000000000000000000000000000000005f52603260045260245ffd5b5f610954826102ff565b91507fffffffffffffffffffffffffffffffffffffffffffffffffffffffffffffffff82036109865761098561086d565b5b60018201905091905056fea264697066735822122056a411ad765f436919117bf806b721c3ae9c0af58e052fccfdae6203b76412d064736f6c63430008190033",
  "immutableReferences": {},
  "source": "// SPDX-License-Identifier: MIT\r\npragma solidity ^0.8.0;\r\n\r\ncontract RegistroArchivos {\r\n     struct Archivo {\r\n         uint256 id;\r\n         string hashIPFS;\r\n         uint contador;\r\n     }\r\n\r\n     Archivo[] public archivos;\r\n    \r\n     // Mapping que asocia el hash de IPFS con el ndice del archivo en el array 'archivos'.\r\n     mapping(string => uint256) hashToId;\r\n  \r\n     // Funcin que toma el hash de un archivo en IPFS.\r\n     function agregarArchivo(string memory _hashIPFS) public {\r\n         // Aade un nuevo 'Archivo' al array 'archivos'. \r\n         // El id del archivo es la longitud actual del array (que tambin ser su ndice), \r\n         // el hash es el pasado a la funcin y el contador se inicializa a 0.\r\n         archivos.push(Archivo(archivos.length, _hashIPFS, 0));\r\n        \r\n          // Actualiza el mapping 'hashToId' con el nuevo ndice del archivo que se aade.\r\n          hashToId[_hashIPFS] = archivos.length - 1;\r\n     }\r\n    \r\n     // Funcin que actualiza el contador de accesos de un archivo basado en su hash de IPFS.\r\n     function registrarAcceso(string memory _hashIPFS) public {\r\n         // Obtiene el ndice del archivo del mapping 'hashToId' usando el hash.\r\n         uint256 id = hashToId[_hashIPFS];\r\n         archivos[id].contador++;\r\n     }\r\n    \r\n     // Funcin que devuelve el contador de accesos de un archivo.\r\n     function obtenerContador(string memory _hashIPFS) public view returns (uint256) {\r\n         // Devuelve el valor del contador accediendo directamente al array 'archivos' con el ndice obtenido del mapping 'hashToId'.\r\n         return archivos[hashToId[_hashIPFS]].contador;\r\n     }\r\n }",
  "sourcePath": "C:\\Users\\SOFI\\Desktop\\blockchain\\contracts\\RegistroArchivos.sol",
  "compiler": {
    "name": "solc",
    "version": "0.8.25+commit.b61c2a91.Emscripten.clang"
  },
  "schemaVersion": "3.4.16",
  "updatedAt": "2024-04-28T14:32:33.049Z",
  "devdoc": {
    "kind": "dev",
    "methods": {},
    "version": 1
  },
  "userdoc": {
    "kind": "user",
    "methods": {},
    "version": 1
  }
}